:100000000C94C5040C94ED040C94ED040C94ED04D4
:100010000C94ED040C94ED040C94ED040C94ED049C
:100020000C94ED040C94ED040C94ED040C94ED048C
:100030000C94ED040C94ED040C94ED040C94ED047C
:100040000C94A3320C94ED040C94ED040C94ED0488
:100050000C94ED040C94ED040C94ED040C94ED045C
:100060000C9476310C94ED04131220112110072208
:10007000081806091905230A1A040B1B03240C1C73
:10008000020D1D25010E1E000F1F26141527161721
:10009000A1A2A3A4A5A6A7A8B1B2B3B4B5B6B7B898
:1000A000E1E2E3E4E5E6E7E8F1F2F3F4F5F6F7F888
:1000B000C1C2C3C4C5C6C7C8E916D516C116AD1698
:1000C0009916851671165D16651678168B169E168E
:1000D000B116C416D716EA164916351621160D168E
:1000E000FD161117251739176C1680169416A816C9
:1000F000BC16D016E416F8161A163F1664168916A2
:10010000AE16D316F8161D17052A9B2991298729A3
:100110001D29132909299F2803290C2916291F297C
:10012000892992299C29052A95288B288128172816
:100130000F2A192A832A8D2A062910291A29842987
:100140008E299829022A0C2A1D288F280229142971
:10015000872999290C2A1E2A2D2D2044454C4554C7
:1001600045202D2D002D2D205341564544202D2D69
:10017000005349474E3A00465245513A202020202C
:100180002047487A004348414E3A0041004200452A
:1001900000462F4169727761766500432F52616393
:1001A000650042414E443A00504F533A0044454C9A
:1001B000455445204348414E4E454C005341564519
:1001C000204348414E4E454C005341564520262081
:1001D000455849540046494C5445523A48494748C5
:1001E0000046494C5445523A4E4F524D414C004600
:1001F000494C5445523A4C4F57005349474E2020E2
:100200003A004652455155454E4359004348414EE8
:100210004E454C2020004F52444552203A00434165
:100220004C4942524154452052535349005345547E
:100230005550204D454E550044454C4554452043AE
:1002400048414E4E454C004D4F5645204348414E87
:100250004E454C0053415645204348414E4E454C77
:1002600000574F524B494E47204348414E4E454C54
:10027000004348414E4E454C204C495354004C4F8E
:1002800057205349474E414C002020200020202079
:1002900000353934350035383030003536343500E6
:1002A0004D696E3A20202020204D61783A0052534B
:1002B000534920534554555000424553543A004247
:1002C000414E44205343414E4E4552004120202090
:1002D000202020202000422020202020202020003C
:1002E00045202020202020202000462F41697277C1
:1002F00061766500432F5261636520202000412014
:1003000020202020202020004220202020202020EB
:100310002000452F426F7363616D2000462F4169B5
:10032000727761766500432F52616365202020005B
:100330003539343500353830300035363435004203
:10034000414E443A004D4F5645204348414E4E459C
:100350004C00534D4152542053454152434800579D
:100360004F524B494E47204348414E4E454C003575
:1003700039343500353830300035363435004241B7
:100380004E443A00534D4152542053454152434844
:10039000004D414E55414C204D4F444500202043D7
:1003A00048414E4E454C002020492043414E2754A1
:1003B0002046494E442000202054484953204348B9
:1003C000414E4E454C002020594F552043414E2769
:1003D000542044454C455445005345545550204DF8
:1003E000454E550042414E44205343414E4E4552E6
:1003F00000534D41525420534541524348004D4112
:100400004E55414C204D4F444500574F524B494E9D
:1004100047204348414E4E454C004D4F44452053E4
:10042000454C454354494F4E0000000000003E5BE0
:100430004F5B3E3E6B4F6B3E1C3E7C3E1C183C7E31
:100440003C181C577D571C1C5E7F5E1C00183C1816
:1004500000FFE7C3E7FF0018241800FFE7DBE7FF12
:1004600030483A060E2629792926407F050507409F
:100470007F05253F5A3CE73C5A7F3E1C1C08081C60
:100480001C3E7F14227F22145F5F005F5F06097F9E
:10049000017F006689956A606060606094A2FFA237
:1004A0009408047E040810207E201008082A1C08E6
:1004B000081C2A08081E101010100C1E0C1E0C30F0
:1004C000383E3830060E3E0E0600000000000000E8
:1004D0005F00000007000700147F147F14242A7FA8
:1004E0002A12231308646236495620500008070375
:1004F00000001C2241000041221C002A1C7F1C2AF3
:1005000008083E0808008070300008080808080045
:100510000060600020100804023E5149453E004240
:100520007F400072494949462141494D3318141210
:100530007F1027454545393C4A4949314121110938
:10054000073649494936464949291E00001400002A
:100550000040340000000814224114141414140044
:100560004122140802015909063E415D594E7C1290
:1005700011127C7F494949363E414141227F414128
:10058000413E7F494949417F090909013E414151A5
:10059000737F0808087F00417F41002040413F01F0
:1005A0007F081422417F404040407F021C027F7F31
:1005B0000408107F3E4141413E7F090909063E4142
:1005C00051215E7F09192946264949493203017F95
:1005D00001033F4040403F1F2040201F3F40384024
:1005E0003F631408146303047804036159494D43BD
:1005F000007F4141410204081020004141417F0435
:10060000020102044040404040000307080020541B
:100610005478407F2844443838444444283844447B
:10062000287F385454541800087E090218A4A49C4A
:10063000787F0804047800447D40002040403D005D
:100640007F1028440000417F40007C047804787CBF
:10065000080404783844444438FC18242418182426
:100660002418FC7C08040408485454542404043F0F
:1006700044243C4040207C1C2040201C3C40304016
:100680003C44281028444C9090907C4464544C4442
:1006900000083641000000770000004136080002E3
:1006A000010204023C2623263C1EA1A161123A400D
:1006B00040207A3854545559215555794122545483
:1006C0007842215554784020545579400C1E52727E
:1006D000123955555559395454545939555454585B
:1006E0000000457C410002457D420001457C407D83
:1006F0001211127DF0282528F07C54554500205415
:10070000547C547C0A097F4932494949323A44446D
:10071000443A324A4848303A4141217A3A424020EC
:1007200078009DA0A07D3D4242423D3D4040403D7D
:100730003C24FF2424487E4943662B2FFC2F2BFFAB
:100740000929F620C0887E0903205454794100000D
:10075000447D413048484A32384040227A007A0A83
:100760000A727D0D19317D2629292F28262929294C
:100770002630484D4020380808080808080808387E
:100780002F10C8ACBA2F102834FA00007B000008E4
:10079000142A142222142A14085500550055AA556B
:1007A000AA55AAFF55FF55FF000000FF00101010CA
:1007B000FF00141414FF001010FF00FF1010F010C1
:1007C000F0141414FC001414F700FF0000FF00FFE5
:1007D0001414F404FC141417101F10101F101F140D
:1007E00014141F00101010F0000000001F10101053
:1007F000101F10101010F010000000FF101010104B
:100800001010101010FF10000000FF140000FF0077
:10081000FF00001F10170000FC04F4141417101739
:100820001414F404F40000FF00F714141414141446
:1008300014F700F7141414171410101F101F1414B9
:1008400014F4141010F010F000001F101F0000002E
:100850001F14000000FC140000F010F01010FF1036
:10086000FF141414FF141010101F00000000F010EB
:10087000FFFFFFFFFFF0F0F0F0F0FFFFFF000000D0
:100880000000FFFF0F0F0F0F0F3844443844FC4A9D
:100890004A4A347E02020606027E027E02635549FF
:1008A00041633844443C04407E201E2006027E0200
:1008B0000299A5E7A5991C2A492A1C4C7201724C81
:1008C000304A4D4D303048784830BC625A463D3E43
:1008D000494949007E0101017E2A2A2A2A2A4444E4
:1008E0005F444440514A444040444A51400000FF64
:1008F0000103E080FF000008086B6B083612362405
:1009000036060F090F06000018180000001010002E
:100910003040FF0101001F01011E00191D171200C8
:100920003C3C3C3C000000000000000008000201CC
:1009300000000304070000000000000000010204A2
:100940000810204080010204081020010204081051
:100950002004040404040404040202020202020348
:100960000303030303000000002300260029000006
:10097000000000250028002B0000000000240027B4
:10098000002A000041161926D43011241FBECFEFD3
:10099000D8E0DEBFCDBF15E0A0E0B1E0EAE0F1E7CE
:1009A00002C005900D92A839B107D9F727E0A8E950
:1009B000B5E001C01D92A332B207E1F719E0CAE821
:1009C000D9E004C02297FE010E944E38C438D107F6
:1009D000C9F70E94C9350C9483380C9400000C941C
:1009E0006D380C94753890E070E0292F30E0621774
:1009F000730764F0F901E450FA4F2081821304C0B8
:100A00009093C30581E008959F5FEFCF80E0089544
:100A10001F93CF93DF93EC0161E08EE00E941E34C0
:100A200080910C0181110BC060E08EE00E941E34A9
:100A300060E084E0DF91CF911F910C941E3410E0B0
:100A4000812F90E08C179D0778F761E084E00E9489
:100A50001E348AEF90E00E94563360E084E00E94EA
:100A60001E348AEF90E00E9456331F5FE9CF982F23
:100A7000E8E6F0E080E02491291729F08F5F3196B5
:100A80008832C9F780E008950E94ED322091B605C2
:100A90003091B705621B730B6332710548F483E232
:100AA00090E0861B970BBC0180E090E00C941C3317
:100AB0000895CF93C82F60E0813031F486E00E9422
:100AC0001E3461E085E005C085E00E941E3461E0CF
:100AD00086E00E941E34C0932201CF9108958F9228
:100AE0009F92AF92BF92CF92DF92EF92FF920F93BD
:100AF0001F93CF93DF93882E86EF91E00E94EF043F
:100B0000809399051092AB051092AA051092A90541
:100B10001092A80510E284E10E949F33EC0185E168
:100B20000E949F336091AA057091AB056C0F7D1FE9
:100B30007093AB056093AA052091A8053091A90593
:100B4000280F391F3093A9052093A805115019F7D4
:100B5000F5E075956795FA95E1F77093AB056093AD
:100B6000AA05C901A5E095958795AA95E1F7909307
:100B7000A9058093A80520912001273061F52091D7
:100B80001701309118016217730720F47093180150
:100B90006093170120911501309116012617370730
:100BA00020F4709316016093150120910F0130918C
:100BB00010018217930720F49093100180930F0186
:100BC00020910D0130910E012817390720F49093E0
:100BD0000E0180930D017093A7056093A605909375
:100BE000A5058093A405E0901901F0901A0100E09A
:100BF00010E020911B0130911C0140E050E088275B
:100C000077FD8095982F1F921F921F92C4E6CF9375
:100C1000A12CB12C6501A3940E947F357093AB0584
:100C20006093AA05E0901101F090120100E010E03D
:100C3000209113013091140140E050E06091A8052B
:100C40007091A905882777FD8095982F1F921F9294
:100C50001F92CF930E947F359B010091AA051091AE
:100C6000AB054DB75EB7485F5F4F0FB6F8945EBFF8
:100C70000FBE4DBF1016110634F4053611052CF0C9
:100C800004E610E002C001E010E01093AB05009311
:100C9000AA05121613063CF4EB01653671052CF01B
:100CA000C4E6D0E002C0C1E0D0E0D093A905C09373
:100CB000A8055FEF851265C08091BE0581115CC0FB
:100CC000C017D10714F4B02E01C0BC2E80902201B1
:100CD00081E0881629F042E0841203C09C2E01C0F6
:100CE000902E6B2D70E080E090E00E94D7366B0173
:100CF0007C01692D70E080E090E00E94D736A7016A
:100D000096010E94D935A70196010E943E3620E047
:100D100030E048EC52E40E948D376B017C0120E00A
:100D200030E0A9010E94893718161CF4C701B601EA
:100D300003C0C701B60190580E94A6366230710503
:100D4000ECF0B91418F41092BD0518C08091BD05DF
:100D50008F5F863074F085E08093BD058B2D90E029
:100D60008017910749F08C179D0741F482E0882E87
:100D700005C08093BD0502C088248394882D0E94FD
:100D8000590551E0851621F080912001873029F422
:100D90008091AA059091AB0504C08091A80590911F
:100DA000A9051816190634F4853691052CF084E649
:100DB00090E002C081E090E0DF91CF911F910F9110
:100DC000FF90EF90DF90CF90BF90AF909F908F906B
:100DD00008958FEF0C946F05EF920F931F93CF93AD
:100DE000DF9380912001863009F4AEC0893009F08C
:100DF0004EC180912301882309F495C060910406B7
:100E000081E090E00E94F10460911F0180E090E099
:100E10000E94F10460910C018BE090E00E94F104CB
:100E200060910B018CE090E00E94F1040AE915E06A
:100E3000C5E6D0E0F80161918F01CE010E94F10476
:100E40002196CF36D105B1F76091BE0586E090E0DE
:100E50000E94F10484EF91E00E94EF04809323014B
:100E6000682F809104060E94F304811107C08091CD
:100E70002301811116C01092230116C01091C305E1
:100E800080912301181798F7C12FD0E0CE01469624
:100E90000E94EF04682FCE0145960E94F1041F5F67
:100EA000EFCF8150809323016091230184EF91E083
:100EB0000E94F10460E08EE190E00E94F1040CEFEA
:100EC00015E0C5E1D0E0CE010E94EF04F801819366
:100ED0008F012196CD31D105B1F740910406E42F61
:100EE000F0E0EE0FFF1FE854FF4F25913491EE2400
:100EF000E3940AE915E06091C30586E096E00E945C
:100F00001225C5E084E690E00E94080562E370E0E7
:100F100080E090E00E941C33C150A1F78091230132
:100F20008093C30505C060E086E096E00E946618E5
:100F300060ED77E080E090E00E941C3381E08093D8
:100F400020018093AF05A3C06091040681E090E08A
:100F50000E94F10460911F0180E090E00E94F10482
:100F600060910C018BE090E00E94F10460910B0114
:100F70008CE090E00E94F1040AE915E0C5E6D0E0BB
:100F8000F80161918F01CE010E94F1042196CF36C4
:100F9000D105B1F76091BE0586E090E00E94F104B2
:100FA00060912301809104060E94F30481112EC0F8
:100FB00080912301873039F0809123018F5F883041
:100FC000A0F087E012C010E0809123011817A0F76D
:100FD000C12FD0E0CE0146960E94EF04682FCE01CB
:100FE00045960E94F1041F5FEFCF8093230180910B
:100FF000230190E06091040645960E94F1048091DF
:1010000023018093C30588E08093C2056091C305E6
:101010008EE190E00E94F1046091C2058FE190E0C2
:101020000E94F1040CEF15E0C5E1D0E0CE010E9472
:10103000EF04F80181938F012196CD31D105B1F7ED
:101040006091230184EF91E00E94F1044091040635
:10105000E42FF0E0EE0FFF1FE854FF4F259134918D
:10106000E12C0AE915E06091C30586E096E00E9454
:101070001225C5E084E690E00E94080564E670E071
:1010800080E090E00E941C33C150A1F751CFDF9166
:10109000CF911F910F91EF900895FF920F931F939F
:1010A000CF93DF9360E086E096E00E943F2388E0E4
:1010B0000E945434892BB1F31092B2051092B305FB
:1010C0001092B4051092B50582E390E00E940805E5
:1010D00064E670E080E090E00E941C3382E390E0E0
:1010E0000E94080564E670E080E090E00E941C33F6
:1010F000C0911F01C1501AE009E0D6E0FD2EC130B9
:1011000039F0C23041F0C11108C0F092200105C091
:101110001093200102C0009320016C2F86E096E01E
:101120000E943F2388E00E945434892BD9F38AE03F
:101130000E945434892BB1F383E00E945434892BEC
:1011400089F3D2E3D150D9F088E00E94543401975A
:1011500089F48AE00E945434019761F483E00E948C
:101160005434019739F464E670E080E090E00E9426
:101170001C33E8CF88E00E945434892B21F588E0A5
:101180000E945434892B21F080911F01809320010B
:1011900084E690E00E94080562E370E080E090E061
:1011A0000E941C3384E690E00E94080562E370E030
:1011B00080E090E00E941C33DF91CF911F910F914E
:1011C000FF900C94EC068AE00E945434892B11F4B1
:1011D000C15006C083E00E945434892B09F4CF5FCC
:1011E000C33024F4C7FF03C0C2E001C0C0E082E303
:1011F00090E00E94080568EC70E080E090E00E94BA
:101200001C337DCF3F924F925F926F927F928F926D
:101210009F92AF92BF92CF92DF92EF92FF920F9385
:101220001F93CF93DF936091200186E096E00E94A8
:10123000E919BB24B39462E0962ECCEFD5E073E0BD
:10124000372E18E00E9444050E94E9068093BF05EE
:101250002091AD053091AE0590E08217930708F418
:10126000C9019093AE058093AD05E090C305F12CC4
:1012700025E1E20EF11CC7010E94EF04D82E8AE09E
:101280000E945434892B21F50E94ED326093B205FF
:101290007093B3058093B4059093B50582E390E015
:1012A0000E94080568EC70E080E090E00E941C332A
:1012B0008091C30590912301891305C01092C30545
:1012C000B092C10505C08F5F8093C3051092C10520
:1012D00083E00E945434892B21F50E94ED32609303
:1012E000B2057093B3058093B4059093B50582E37E
:1012F00090E00E94080568EC70E080E090E00E94B9
:101300001C338091C305811107C080912301809314
:10131000C3059092C10505C081508093C30510920A
:10132000C1050091C10501111AC04090C305512C9F
:1013300085E1480E511CC2010E94EF04082F6D2D5B
:10134000C2010E94F104602FC7010E94F1044CEF1A
:10135000C42E45E0D42E55E1E52EF12C63C02CEFD0
:10136000C22E25E0D22E35E1E32EF12CC7010E94DA
:10137000EF04F60181936F01FFEFEF1AFF0A2DE1F1
:10138000E216F10499F7013001F53092C105809120
:101390002301E82FF0E0E450FA4F90819093F40598
:1013A000A5EFB5E0ECEFF5E09E2F9C1B981728F415
:1013B00091919D93F9CF5093C10584EFC82E85E09C
:1013C000D82E95E1E92EF12C1FC00230B1F7209103
:1013D000230130E0F901EC50FA4F8091FC05808345
:1013E00052E041E0842F90E02817390724F3EFEF13
:1013F000E40FF0E0EC50FA4FDC01A450BA4F8C91AE
:1014000080834F5F53E0EECFF60161916F01C7011A
:101410000E94F104FFEFEF1AFF0A2DE1E216F1043A
:1014200099F795CFC7010E94EF04F60181936F01F0
:10143000FFEFEF1AFF0A2DE1E216F10499F7E091B0
:10144000C305F0E0E450FA4F8081883260F40E94D6
:10145000370580930506E091C305F0E0E450FA4FAC
:101460008081809304064090B2055090B30560904F
:10147000B4057090B50588E8480E83E1581E611CDC
:10148000711C0E94ED32C090B205D090B305E0907F
:10149000B405F090B505461657066806790650F46F
:1014A000C114D104E104F10429F08091BF05833314
:1014B00008F063C0C114D104E104F10471F00E948A
:1014C000ED32E0E1CE0EE7E2DE1EE11CF11CC616B5
:1014D000D706E806F90608F450C06091C305E62F68
:1014E000F0E0E450FA4FE081F0E0EE0FFF1FE85427
:1014F000FF4FE590F490AA24A3948091B105811147
:1015000001C0A12C80902301C09021010091BF0552
:10151000209105064CEF55E086E096E00E94F41A13
:1015200088E00E945434019709F48CCE6091C30581
:101530008EE190E00E94F10481E08093200180938D
:10154000AF0588E00E945434892BD9F368EC70E031
:1015500080E090E0DF91CF911F910F91FF90EF908D
:10156000DF90CF90BF90AF909F908F907F906F90C3
:101570005F904F903F900C941C3310932001ADCF9F
:10158000CF93DF9390E0292F30E0DB01A20FB31F50
:10159000EC91F0E0E057FF4FE491E901CC52DA4FD3
:1015A000E883EC91F0E0EE0FFF1FE854FF4F459108
:1015B0005491F901EE0FFF1FEC53FA4F5183408312
:1015C0009F5F891700F7DF91CF910895CF92DF9247
:1015D000EF92FF92CF936A017B0195E0CC0CDD1C6A
:1015E000EE1CFF1C9A95D1F76894C4F88F70C80E52
:1015F000D11CE11CF11C60E08FE00E941E3481E0F0
:1016000090E00E94563360E080E10E941E3481E049
:1016100090E00E945633C9E1C0FE02C061E001C003
:1016200060E081E10E941E3481E090E00E94563328
:1016300061E08FE00E941E3481E090E00E9456330A
:1016400060E08FE00E941E34F694E794D794C7942C
:1016500081E090E00E945633C150F1F661E080E1F4
:101660000E941E3481E090E00E94563360E081E1E8
:101670000E941E3481E090E0CF91FF90EF90DF90C8
:10168000CF900C945633E82FF0E0EE0FFF1FE85F89
:10169000FE4F4591549160E070E081E00C94E60AC1
:1016A0000F931F93CF93DF9380E00E949C3361E000
:1016B0008EE00E94E53361E08EE00E941E3461E01E
:1016C00084E00E94E53360E084E00E941E3460E024
:1016D0008AE00E94E53362E08AE00E941E3460E006
:1016E00088E00E94E53362E088E00E941E3460E0FA
:1016F00083E00E94E53362E083E00E941E3461E0F3
:1017000085E00E94E53361E086E00E94E53381E0F8
:101710000E94590561E080E10E94E53361E081E1CA
:101720000E94E53361E08FE00E94E53360E084E1F0
:101730000E94E53360E085E10E94E53384E690E0B5
:101740000E94EF04853081F0C0E0D0E06FEFCE0161
:101750000E94F1042196C11582E0D807B9F765E02F
:1017600084E690E00E94F10480E090E00E94EF04A3
:101770008F3F09F08FC065E084E690E00E94F1049D
:1017800063E080E090E00E94F10460E081E090E09E
:101790000E94F10460910C018BE090E00E94F10442
:1017A00060910B018CE090E00E94F1046AE582E018
:1017B00090E00E94F10460E083E090E00E94F10478
:1017C0006CED84E090E00E94F10460E085E090E040
:1017D0000E94F10467E375E08AE995E00E946638AB
:1017E0000AE915E0C5E6D0E0F80161918F01CE016C
:1017F0000E94F1042196CF36D105B1F760E08FE168
:1018000090E00E94F10460E08EE190E00E94F1041B
:1018100060E285E190E00E94F10461E286E190E0FF
:101820000E94F10462E287E190E00E94F10463E229
:1018300088E190E00E94F10464E289E190E00E9476
:10184000F10465E28AE190E00E94F10466E28BE136
:1018500090E00E94F10467E28CE190E00E94F104C4
:101860006091BE0586E090E00E94F1046AE587E0A1
:1018700090E00E94F10460E088E090E00E94F104B2
:101880006CED89E090E00E94F10460E08AE090E075
:101890000E94F1048EE190E00E94EF048093C30562
:1018A0008FE190E00E94EF048093C20586EF91E003
:1018B0000E94EF048093990584EF91E00E94EF0469
:1018C0008F3FB9F467E084EF91E00E94F10465E096
:1018D00070E080E090E00E941C3361E086EF91E0D0
:1018E0000E94F10465E070E080E090E00E941C330B
:1018F00008C08093230186EF91E00E94EF0480935B
:1019000099050CEF15E0C5E1D0E0CE010E94EF048F
:10191000F80181938F012196CD31D105B1F79091D6
:10192000C30580912301891710F41092C30580919B
:10193000C205883010F01092C20581E0809320012A
:101940008091C30590E045960E94EF0480930406C1
:101950000E94430B809104068093BB058BE090E0CE
:101960000E94EF0491E0811101C090E090930C017E
:101970008CE090E00E94EF0491E0811101C090E0C2
:1019800090930B010AE915E0C5E6D0E0CE010E9474
:10199000EF04F80181938F012196CF36D105B1F77D
:1019A00085E090E00E94EF04C82F84E090E00E9460
:1019B000EF042C2F30E0322F2227282B30931A01EE
:1019C0002093190183E090E00E94EF04C82F82E089
:1019D00090E00E94EF042C2F30E0322F2227282B9A
:1019E00030931C0120931B0186E090E00E94EF04DD
:1019F0008093BE0588E090E00E94EF04C82F87E046
:101A000090E00E94EF042C2F30E0322F2227282B69
:101A100030931401209313018AE090E00E94EF04B8
:101A2000C82F89E090E00E94EF042C2F30E0322F85
:101A30002227282B309312012093110181E08093FB
:101A4000AF056AE975E086E096E00E946016181618
:101A50008CF48EE00E94543461E0892B09F060E040
:101A60008EE00E941E3464E670E080E090E00E9408
:101A70001C33EFCF85E10E949F33059714F4109239
:101A8000BE0560E08EE0DF91CF911F910F910C9425
:101A90001E348F929F92AF92BF92CF92DF92EF92BD
:101AA000FF920F931F93CF93DF9364E670E080E083
:101AB00090E00E941C338FEF8093C00564EF75E0C7
:101AC000C4EE8C2EC5E09C2E8CED95E0A4EDB5E027
:101AD000E4ECF5E094014CEE55E010E0EB011992D6
:101AE000BE01EA011992AE01E90119929E01EC01D1
:101AF0001992CE011D92119211921F5F183071F749
:101B0000B2E0DB2E10E0BB24B39410920506E09106
:101B10000506FF27E7FDF095E859FF4F8491809374
:101B200004060E94430B62E370E080E090E00E94B4
:101B30001C330E9444050E94E9068093BF05409132
:101B4000AD055091AE05282F30E02417350708F475
:101B50009A013093AE052093AD0540910406E42F21
:101B6000F0E0EE0FFF1FE854FF4FE590F490AA2439
:101B7000A3949091B105911101C0A12CC0902101B5
:101B8000082F2091050663E086E096E00E949A1CEB
:101B90002091BF052135D8F09091230130910406A2
:101BA00080E0E82FF0E0E450FA4F4081341721F054
:101BB0008F5F9817B0F725C0812F90E0FC01EC51A2
:101BC000FA4F3083FC01E452FA4F20831F5F88E014
:101BD0000E945434892B11F4B09298058091050627
:101BE0008F5F8093050688320CF053C088E00E9416
:101BF0005434019709F04DC080919805811149C076
:101C000086CF8091C005873054F48F5F8093C005E4
:101C1000992787FD9095FC01E451FA4F09C0992757
:101C200087FD9095FC01E451FA4F4081421728F45A
:101C30002083FC01EC50FA4F30835091C005A0E0A6
:101C40005A172CF261E06A0F462FBB27A7FDB0950B
:101C5000FD01E451FA4FAC50BA4F5417C4F0242F91
:101C6000332727FD3095C90184519A4FEC01F88044
:101C700070817F1550F4EC902C503A4FE901A88008
:101C8000AC92E882F082EC0178834F5FE6CFA62F1A
:101C9000D7CF88E00E945434892B11F4B092980574
:101CA0008091C0058F3F61F488E00E945434019711
:101CB00039F4DA9429F080919805882309F425CF26
:101CC00060E0212F30E0862F992787FD90958217BD
:101CD00093071CF56F5F762FFC01E452FA4FDC018D
:101CE000AC51BA4F472F552747FD50954217530720
:101CF00054F7CA0184529A4FEC01E880F080FE1438
:101D000050F4DC904C515A4FEA01B880BC92D88212
:101D1000E082EC01F8827F5FE5CF8091C005810F02
:101D200087300CF087E08093C0058091C005682F54
:101D3000772767FD709590E024513A4F492F50E086
:101D40006417750754F0F901E40FF51FDA01AC5080
:101D5000BA4F4C9140839F5FF1CFACEEB5E0E4EE1B
:101D6000F5E09E2F9819911718F491919D93F9CF52
:101D70008F3FD1F06CEE75E00E94C00AEE24E39430
:101D8000009104062091C00544EC55E064ED75E037
:101D900086E096E00E946322C2E3C15029F088E009
:101DA0000E9454340197D9F068EC70E080E090E034
:101DB0000E941C3380919805811118C063E086E071
:101DC00096E0DF91CF911F910F91FF90EF90DF9000
:101DD000CF90BF90AF909F908F900C94E91964E6DC
:101DE00070E080E090E00E941C33D7CFDF91CF916C
:101DF0001F910F91FF90EF90DF90CF90BF90AF9029
:101E00009F908F9008958091B105811116C0109216
:101E100098050E94490D81E08093B1051092C30599
:101E200088E28093BB050E94ED326093B205709307
:101E3000B3058093B4059093B50580919805811101
:101E400009C08091C0058F3F59F461E086E096E0BB
:101E50000E94661881E0809320018093AF05089569
:101E60000E9444050E94E9068093BF058AE00E9413
:101E70005434892B11F50E94ED326093B2057093B2
:101E8000B3058093B4059093B50568EC70E080E0ED
:101E900090E00E941C334091C305242F30E08091D4
:101EA000C005992787FD90952817390719F41092D6
:101EB000C30503C04F5F4093C30583E00E945434C1
:101EC000892BD1F40E94ED326093B2057093B30573
:101ED0008093B4059093B50568EC70E080E090E0E5
:101EE0000E941C338091C305811103C08091C005FD
:101EF00001C081508093C305E091C305F0E0E45137
:101F0000FA4F8081883260F40E943705809305067D
:101F1000E091C305F0E0E451FA4F8081809304061C
:101F200008958F929F92AF92BF92CF92DF92EF92DD
:101F3000FF920F931F93CF93DF9388E00E94543456
:101F4000892BE1F51092B2051092B3051092B405F9
:101F50001092B50582E390E00E94080564E670E007
:101F600080E090E00E941C3382E390E00E9408052C
:101F700064E670E080E090E00E941C33D0E088E0EE
:101F80000E945434892B19F4DA3009F035C5C09118
:101F90001F0180912001811103C083E08093200103
:101FA000DA3008F4D5C480912001813009F0CEC424
:101FB0008AE0809320018FEF80931E011092BC0570
:101FC0008091AF0560912001811105C080911E01B3
:101FD000681709F490C01092AF05633031F138F4FE
:101FE000613009F44CC0623009F45EC580C06630CF
:101FF00009F47BC0673009F42BC5643009F077C061
:1020000060931F0110920506E8E6F0E0E491E0938A
:1020100004061092AE051092AD0581E08093B005E4
:1020200086E096E00E94101E62C080E58093210148
:102030001092AE051092AD0581E08093BA05109222
:10204000B2051092B3051092B4051092B5056091D7
:10205000200186E096E00E94C91880911F0184301B
:1020600029F080911E01873009F03EC58091C3059B
:1020700090E045960E94EF048093040635C58EE1FA
:1020800090E00E94EF048093C30590E045960E9483
:10209000EF048093040680910A01811113C06CEF54
:1020A00075E0809123010E94C00AE12C0091C305D4
:1020B0002091230144EC55E064ED75E086E096E064
:1020C0000E94632210920A01C2E3C15009F4F7C4CE
:1020D00088E00E945434019709F0F1C464E670E08E
:1020E00080E090E00E941C33F0CF0E94EC068091CB
:1020F000200180931E0180912001883009F076C074
:1021000080910406E82FF0E0EE0FFF1FE854FF4F28
:1021100025913491E82FF0E0E057FF4F44910AE910
:1021200015E06091BE0586E096E00E943E200E9488
:10213000E9068093BF058090110190901201A09054
:102140001301B0901401C0901901D0901A01E090D1
:102150001B01F0901C019091A5059F939091A405FF
:102160009F939091A7059F939091A6059F9390911F
:102170000E019F9390910D019F93909110019F9359
:1021800090910F019F93909116019F93909115014B
:102190009F93909118019F93909117019F930091A5
:1021A000A8052091AA05482F6091220186E096E0BB
:1021B0000E94F82088E00E9454342DB73EB7245F77
:1021C0003F4F0FB6F8943EBF0FBE2DBF019709F0E9
:1021D00090C48AE00E945434019709F08AC483E0D5
:1021E0000E945434019709F084C4A1CF813009F0D2
:1021F000CCC00E9444050E94E9068093BF0520914F
:10220000AD053091AE0590E08217930708F4C9013F
:102210009093AE058093AD058AE00E945434892BDB
:1022200001F50E94ED326093B2057093B30580937F
:10223000B4059093B50582E390E00E94080568EC30
:1022400070E080E090E00E941C338091C305909183
:102250002301891303C01092C30503C08F5F8093CD
:10226000C30583E00E945434892BF1F40E94ED32BF
:102270006093B2057093B3058093B4059093B50550
:1022800082E390E00E94080568EC70E080E090E056
:102290000E941C338091C305811103C080912301EA
:1022A00001C081508093C305E091C305F0E0E45084
:1022B000FA4F8081883260F40E94370580930506CA
:1022C000E091C305F0E0E450FA4F8081809304066A
:1022D0008090B2059090B305A090B405B090B5057C
:1022E00038E8830E33E1931EA11CB11C0E94ED322D
:1022F000C090B205D090B305E090B405F090B5055C
:1023000086169706A806B90650F4C114D104E10454
:10231000F10429F08091BF05833308F0F7C3C1149D
:10232000D104E104F10471F00E94ED3220E1C20E0B
:1023300027E2D21EE11CF11CC616D706E806F906F4
:1023400008F4E4C36091C305E62FF0E0E450FA4FCF
:10235000E081F0E0EE0FFF1FE854FF4FE590F490AE
:10236000AA24A3948091B105811101C0A12C809071
:102370002301C09021010091BF05209105064CEF7B
:1023800055E086E096E00E94F41A809120019EEFCD
:10239000980F923008F00CC10E9444050E94E90693
:1023A0008093BF052091AD053091AE0590E0821776
:1023B000930708F4C9019093AE058093AD05809111
:1023C00004060E9437058093050680912001823023
:1023D00009F066C08AE00E945434892B31F50E94CE
:1023E000ED326093B2057093B3058093B40590937A
:1023F000B50582E390E00E94080568EC70E080E09B
:1024000090E00E941C33809104068F5F8093040645
:10241000909105069F5F90930506983214F01092F4
:102420000506883210F01092040683E00E945434AE
:10243000892B41F50E94ED326093B2057093B3058C
:102440008093B4059093B50582E390E00E9408055F
:1024500068EC70E080E090E00E941C3380910406FC
:102460008150809304069091050691509093050643
:1024700097FF03C098E290930506883218F087E230
:102480008093040680910B0181110AC0E09105063A
:10249000FF27E7FDF095E859FF4FE491E09304062C
:1024A00080912001833011F40E94030F8090B205C7
:1024B0009090B305A090B405B090B50538E8830EB0
:1024C00033E1931EA11CB11C0E94ED32C090B205F5
:1024D000D090B305E090B405F090B5058616970648
:1024E000A806B90650F4C114D104E104F10429F09E
:1024F0008091BF05833308F00DC3C114D104E104FA
:10250000F10471F00E94ED3220E1C20E27E2D21EEA
:10251000E11CF11CC616D706E806F90608F4FAC253
:10252000809120018230E9F440910406E42FF0E02C
:10253000EE0FFF1FE854FF4FE590F490AA24A394F8
:102540008091B105811101C0A12CC09021010091A1
:10255000BF052091050662E086E096E00E949A1C85
:1025600030C1833009F02DC16091C305E62FF0E042
:10257000EC50FA4FE081F0E0EE0FFF1FE854FF4F00
:10258000E590F490AA24A3948091B105811101C033
:10259000A12C8090C005C09021010091BF05209121
:1025A00005064CEE55E086E096E00E94F41A09C15B
:1025B000843019F0873009F004C18091B005882378
:1025C00051F01092B005809104060E94430B809157
:1025D00004068093BB050E9444050E94E90680938F
:1025E000BF0570912001743079F4813568F09C0149
:1025F00033274091AD055091AE054217530720F4A3
:102600003093AE052093AD0520910406E22FF0E053
:10261000E057FF4F0491E22FF0E0EE0FFF1FE85468
:10262000FF4FE590F490A0901501B0901601C09076
:102630001701D090180161E0773009F060E0282F91
:102640004091050686E096E00E94E11E8091050615
:10265000873224F48F5F809305068EC010920506A2
:1026600080912001873009F087C08091AC059FEFF1
:10267000980F9093AC0581117FC0609117018091F4
:10268000180160931B0180931C01809115019091AA
:1026900016018D37910510F48CED90E090931A019E
:1026A0008093190182E090E00E94F10460911C0186
:1026B00083E090E00E94F1046091190184E090E0D1
:1026C0000E94F10460911A0185E090E00E94F104FB
:1026D00085E10E949F3305975CF160910F01809125
:1026E0001001609313018093140180910D0190916A
:1026F0000E018D37910510F48CED90E0909312014E
:102700008093110187E090E00E94F1046091140130
:1027100088E090E00E94F1046091110189E090E06E
:102720000E94F104609112018AE090E00E94F1049D
:1027300080E090E00E94EF048093200184E690E026
:102740000E94080564E670E080E090E00E941C337F
:1027500084E690E00E94080564E670E080E090E086
:102760000E941C3384E690E00E94080564E670E055
:1027700080E090E00E941C338AE00E945434892B50
:10278000B1F482E390E00E94080568EC70E080E01C
:1027900090E00E941C338FEF80931E01109205067B
:1027A00081E08093B0051092AE051092AD05E091E6
:1027B0000506FF27E7FDF095E859FF4FE491E09308
:1027C0000406809120018A3011F40E944D08809106
:1027D00020018A3091F40E94ED326093B20570932B
:1027E000B3058093B4059093B5056091200186E010
:1027F00096E00E94E9190E940209809120018F3021
:1028000009F062C086E096E00E94CC23CFEFDFEFB4
:10281000F12CDD24D3940DE7B02E80E2A82E96E0B3
:10282000992E27E0822EC0909905EC2E0AE915E03A
:1028300020910B0140910C016F2D86E096E00E94E3
:10284000CD2312E3115088E009F491C10E94543461
:10285000019789F48AE00E945434019761F483E07F
:102860000E945434019739F464E670E080E090E00F
:102870000E941C33E7CF88E00E945434892B09F072
:10288000AAC132E0F31609F48FC13F150CF472C1EE
:10289000FF2009F48FC181E0F812C6C180910B01BD
:1028A0008F2580930B0182E390E00E94080566E982
:1028B00070E080E090E00E941C33CF3F8FEFD8079C
:1028C00009F4BCC1D110AFCF809104069091BB0533
:1028D000981709F4C9C10E94430B809104068093A4
:1028E000BB050E94ED326093B6057093B7058093E7
:1028F000B8059093B90580911D01882309F4B4C1EE
:1029000010921D0184E690E00E94080564E670E0E4
:1029100080E090E00E941C3384E690E00E9408056D
:1029200064E670E080E090E00E941C3384E690E072
:10293000DF91CF911F910F91FF90EF90DF90CF909B
:10294000BF90AF909F908F900C94080586E031CB9C
:10295000C15003E011E0B4E0EB2EDFE0DD2E82E0B9
:10296000C82EC23091F03CF4CC2361F0C130B1F4F8
:10297000C092200113C0C33079F0C43079F4D092F2
:1029800020010CC01093200109C000932001109376
:10299000BA051092B10502C0E0922001FC2E6C2F06
:1029A00086E096E00E94A11788E00E945434892BAB
:1029B000D9F38AE00E945434892BB1F383E00E945A
:1029C0005434892B89F3D2E3D15021F188E00E945D
:1029D00054340197C9F48AE00E9454340197A1F459
:1029E00083E00E945434019779F464E670E080E05B
:1029F00090E00E941C33E8CF64E670E080E090E055
:102A00000E941C33DF5FBBCA88E00E945434892BCC
:102A100009F084C088E00E945434892B21F0809111
:102A20001F018093200182E390E00E94080564E684
:102A300070E080E090E00E941C3382E390E00E940E
:102A4000080566E970E080E090E00E941C33B3CA9C
:102A5000E2E3F0E0F0931C01E0931B014CE251E053
:102A600050931A01409319012CED30E03093180176
:102A7000209317018AE590E0909316018093150149
:102A8000F0931401E093130150931201409311014C
:102A90003093100120930F0190930E0180930D014C
:102AA00083E08093AC05AECA0E94ED326093B2051C
:102AB0007093B3058093B4059093B505C8CA68ECCC
:102AC00070E080E090E00E941C330E94ED32609341
:102AD000B2057093B3058093B4059093B50561E09A
:102AE00086E096E00E94E9198091200180931F0101
:102AF000FECA80911F01809320011092B2051092AE
:102B0000B3051092B4051092B505AEC088E080936D
:102B1000200118CC88E08093200102CD8AE00E9439
:102B20005434892B49F4C15085E10E949F330597A5
:102B30004CF4C33039F418C083E00E945434892B1C
:102B400009F4CF5FC53024F4C7FF03C0C4E001C05F
:102B5000C0E082E390E00E94080568EC70E080E04D
:102B600090E00E941C33FDCECEEFCF0DEBCF8093D3
:102B70002001AACE23E0F21631F034E0F31254C063
:102B80009092200126C0809199058F5F833019F0C3
:102B90008093990502C0109299056091990586EF7E
:102BA00091E00E94F1047FCE2196CA30D1050CF04D
:102BB00058C079CE1AE089E190E00E94080569E1E9
:102BC00070E080E090E00E941C331150A1F78092E9
:102BD0002001D12C68CE8AE00E945434892B79F4EC
:102BE000CF3F8FEFD80711F4FA941EC0FE01E656CE
:102BF000FA4F80818F5F8E37A4F0A08215C083E0EA
:102C00000E945434892B81F4CF3F2FEFD20711F467
:102C1000F3940AC0FE01E656FA4F8081815080325B
:102C200014F0808301C0B08234E03F152CF0F7FE31
:102C30003ACE14E0F12E37CEF12C35CE88E00E944A
:102C40005434892B09F433CE8AE00E945434892B02
:102C500009F42DCE83E00E945434892B09F427CE49
:102C600031CECFEFDFEF1FCEDF91CF911F910F91CC
:102C7000FF90EF90DF90CF90BF90AF909F908F909C
:102C8000089586E096E00C945A16A8E3B6E020E09A
:102C9000FC013491332331F02E3121F03D93019624
:102CA0002F5FF6CFE22FF0E0E85CF94F308388E346
:102CB00096E00895FC018FEF82838383108208954C
:102CC000CF93DF9321E04CE362E08AE096E00E943C
:102CD000DC2940E050E061E070E08AE096E00E948C
:102CE00000308AE096E00E940D30EC018AE096E028
:102CF0000E940930AE014A505109BC016455710966
:102D0000769567958AE096E00E94EE2F61E08AE072
:102D100096E00E94F42F6FE375E08AE096E00E944F
:102D2000BB348AE096E00E94112B68EE73E080E0ED
:102D300090E00E941C3380E0DF91CF9108958AE0FB
:102D400096E00E94612940E050E060E070E08AE097
:102D500096E00E94EE2F61E08AE096E00E94F42F58
:102D600061E070E08AE096E00C94FA2FCF92DF9257
:102D7000EF92FF920F931F93CF93DF93EB01E091BC
:102D80000A06F0910B06C484D5848AE096E00E947E
:102D90000D308C018AE096E00E940930EE24E39425
:102DA000F12C9C0140E050E060E070E08AE096E0A9
:102DB000F6010995E0910A06F0910B06C684D784C6
:102DC0008AE096E00E9409300BE010E09C0140E0B0
:102DD00050E060E070E08AE096E0F601099561E07D
:102DE0008AE096E00E94F42F60E070E08AE096E0CE
:102DF0000E94FA2F8AE096E00E940930FE010190BD
:102E00000020E9F73197EC1BFD0B46E04E9F900147
:102E10004F9F300D1124BC01621B730B7695679593
:102E200042E050E08AE096E00E94EE2FBE018AE088
:102E300096E00E94BB3461E070E08AE096E0DF91AA
:102E4000CF911F910F91FF90EF90DF90CF900C9456
:102E5000FA2FBF92CF92DF92EF92FF920F931F93C0
:102E6000CF93DF93EB01B42EE0910A06F0910B06AD
:102E7000C484D5848AE096E00E940D308C018AE0FB
:102E800096E00E940930EE24E394F12C9C0140E08E
:102E900050E060E070E08AE096E0F6010995E0918C
:102EA0000A06F0910B06C684D7848AE096E00E9459
:102EB00009300BE010E09C0140E050E060E070E081
:102EC0008AE096E0F601099561E08AE096E00E94CA
:102ED000F42F60E070E08AE096E00E94FA2F8AE02A
:102EE00096E00E940930FE0101900020E9F7319739
:102EF000EC1BFD0BBC016B19710946E04E9F900164
:102F00004F9F300D1124621B730B7695679542E03D
:102F100050E08AE096E00E94EE2FBE018AE096E043
:102F20000E94BB3461E070E08AE096E0DF91CF91CF
:102F30001F910F91FF90EF90DF90CF90BF900C9476
:102F4000FA2FDF92EF92FF920F931F93CF93DF93AD
:102F5000EC01D62E0E949F168AE194E00E9445164D
:102F6000BC01CE010E94B616E0910A06F0910B0654
:102F7000C685D7858AE096E00E9409302AE0D29E75
:102F8000A0011124445F5F4FEE24E394F12C0AE08A
:102F900010E09C0160E070E08AE096E0FE01099597
:102FA00061E070E0D11002C060E070E08AE096E07D
:102FB0000E94FA2F4DE050E065E070E08AE096E074
:102FC0000E94EE2F8AE094E00E944516BC018AE040
:102FD00096E00E94BB3461E070E0F1E0DF1202C0D5
:102FE00060E070E08AE096E00E94FA2F47E150E04E
:102FF00065E070E08AE096E00E94EE2F8EEF93E0AD
:103000000E944516BC018AE096E00E94BB3461E054
:1030100070E022E0D21202C060E070E08AE096E048
:103020000E94FA2F41E250E065E070E08AE096E00D
:103030000E94EE2F81EF93E00E944516BC018AE0CA
:1030400096E00E94BB3461E070E083E0D81202C0D9
:1030500060E070E08AE096E00E94FA2F4BE250E0D8
:1030600065E070E08AE096E00E94EE2F84EE93E047
:103070000E944516BC018AE096E00E94BB3461E0E4
:1030800070E0E4E0DE1202C060E070E08AE096E00A
:103090000E94FA2F45E350E065E070E08AE096E098
:1030A0000E94EE2F89ED93E00E944516BC018AE054
:1030B00096E00E94BB348AE096E0DF91CF911F91A9
:1030C0000F91FF90EF90DF900C94112B1F93CF93F3
:1030D000DF93EC01162F0E949F1640E050E061E064
:1030E00070E08AE096E00E94003042E150E060E04B
:1030F00070E08AE096E0111116C00E94EE2F86EC77
:1031000093E00E944516BC018AE096E00E94BB3421
:103110004CE150E060E070E08AE096E00E94EE2F23
:1031200087EB93E015C00E94EE2F87EA93E00E94A0
:103130004516BC018AE096E00E94BB344CE150E0A9
:1031400060E070E08AE096E00E94EE2F8DE993E067
:103150000E944516BC018AE096E00E94BB348AE0DA
:1031600096E00E94112B6CED75E080E090E00E94EB
:103170001C33CE010E949F166AE070E080E090E070
:103180000E941C338AE096E0DF91CF911F910C944E
:10319000112BAF92BF92CF92DF92EF92FF920F93DB
:1031A0001F93CF93DF931F92CDB7DEB78C018FEFC4
:1031B000F8018283C80169830E949F166981623089
:1031C00019F481E993E004C0633041F484E893E0AA
:1031D0000E944516BC01C8010E94B61661E070E06D
:1031E0008AE096E00E94FA2FE0910A06F0910B0621
:1031F000C680D7808AE096E00E940930EE24E394EE
:10320000F12C04E110E09C0144E150E060E070E04A
:103210008AE096E0F6010995E0910A06F0910B0626
:10322000C680D7808AE096E00E94093000E210E074
:103230009C0140E250E060E070E08AE096E0F60138
:1032400009954CE050E065E070E08AE096E00E946D
:10325000EE2FE0910A06F0910B060680F781E02D33
:1032600004E110E021E630E04BE050E061E670E080
:103270008AE096E009958EE793E00E944516BC012E
:103280008AE096E00E94BB3411E3F8E0CF2ED12C07
:1032900047E150E0B6018AE096E00E94EE2F612FF0
:1032A0008AE096E00E94BD34FFE0CF0ED11C1F5F84
:1032B000193371F7E0910A06F0910B06C680D780AA
:1032C0008AE096E00E940930EE24E394F12C04E2B7
:1032D00010E09C0144E250E060E070E08AE096E09B
:1032E000F6010995E0910A06F0910B06A680B780D9
:1032F0008AE096E00E940D308C018AE096E00E9400
:1033000009306C018AE096E00E940D300B501109E3
:10331000AC014B505109960160E070E08AE096E004
:10332000F50109958AE096E00E940D30AC01495004
:10333000510962E070E08AE096E00E94EE2F89E792
:1033400093E00E944516BC018AE096E00E94BB34DF
:103350008AE096E00E940D30AC014950510967E3C4
:1033600070E08AE096E00E94EE2F84E793E00E94EE
:103370004516BC018AE096E00E94BB348AE096E0E4
:103380000E940D308C018AE096E00E940930A8016D
:1033900049505109BC01695171098AE096E00E94C7
:1033A000EE2F8FE693E00E944516BC018AE096E07E
:1033B0000E94BB348AE096E00F90DF91CF911F917D
:1033C0000F91FF90EF90DF90CF90BF90AF900C9453
:1033D000112BAF92BF92CF92DF92EF92FF920F9399
:1033E0001F93CF93DF931F92CDB7DEB78C018FEF82
:1033F000F8018383C80169830E949F166981613047
:1034000019F48FE593E007C0633019F482E593E087
:1034100002C085E493E00E9445164FE0BC01C8015C
:103420000E94291761E070E08AE096E00E94FA2F7E
:10343000E0910A06F0910B06C680D7808AE096E0FC
:103440000E940930EE24E394F12C04E110E09C0189
:1034500044E150E060E070E08AE096E0F601099512
:10346000E0910A06F0910B06C680D7808AE096E0CC
:103470000E94093000E210E09C0140E250E060E070
:1034800070E08AE096E0F60109954CE050E065E0D6
:1034900070E08AE096E00E94EE2FE0910A06F0913B
:1034A0000B060680F781E02D04E110E021E630E014
:1034B0004BE050E061E670E08AE096E009958FE32A
:1034C00093E00E944516BC018AE096E00E94BB345E
:1034D000E0910A06F0910B06C680D7808AE096E05C
:1034E0000E94093004E210E09C0144E250E060E0F8
:1034F00070E08AE096E0F6010995E0910A06F09105
:103500000B06A680B7808AE096E00E940D308C0101
:103510008AE096E00E9409306C018AE096E00E9401
:103520000D300B501109AC014B505109960160E070
:1035300070E08AE096E0F50109958AE096E00E9445
:103540000D30AC014950510962E070E08AE096E02C
:103550000E94EE2F8AE393E00E944516BC018AE0A8
:1035600096E00E94BB348AE096E00E940D30AC01E8
:103570004950510967E370E08AE096E00E94EE2F1F
:1035800085E393E00E944516BC018AE096E00E9424
:10359000BB348AE096E00E940D308C018AE096E010
:1035A0000E940930A80149505109BC0169517109B3
:1035B0008AE096E00E94EE2F80E393E00E94451699
:1035C000BC018AE096E00E94BB348AE096E00F904E
:1035D000DF91CF911F910F91FF90EF90DF90CF90EF
:1035E000BF90AF900C94112B2F923F924F925F920D
:1035F0006F927F928F929F92AF92BF92CF92DF9203
:10360000EF92FF920F931F93CF93DF9300D000D0E0
:103610001F92CDB7DEB79A838983962E5A012B83EA
:10362000402EFD82EC8240E050E061E070E08AE0F4
:1036300096E00E9400304CE050E064E270E08AE0E6
:1036400096E00E94EE2FA90CB11CF501808180321A
:1036500088F086E293E00E944516BC018AE096E07D
:103660000E94BB3474E0672E712CC12CD12C292C04
:10367000312C12C0883118F08CE193E0ECCF80310E
:1036800018F082E193E0E7CF883018F088E093E00B
:10369000E2CF8EEF92E0DFCF55245394C214D304CF
:1036A00009F0512CE0910A06F0910B06E52CF12C63
:1036B0000684F785E02D0BE010E02EE030E045E1D8
:1036C00050E0B3018AE096E0099561E070E0C21431
:1036D000D30411F460E070E08AE096E00E94FA2FD3
:1036E00047E150E0B3016C5F7F4F8AE096E00E94B3
:1036F000EE2F552061F0F5016081677070E06F5F1B
:103700007F4F4AE050E08AE096E00E945D354CE051
:1037100050E065E670E08AE096E00E94EE2F40E01F
:1037200050E061E070E08AE096E00E9400304AE0FC
:1037300050E06C817D818AE096E00E947935FFEF50
:10374000CF1ADF0A2FE0620E711C38E0C316D104D5
:1037500009F0A2CF42E050E06DE670E08AE096E02A
:103760000E94EE2F40E050E061E070E08AE096E0D9
:103770000E9400306EE475E08AE096E00E94BB345F
:10378000682D70E06F5F7F4F4AE050E08AE096E07E
:103790000E945D356EE475E08AE096E00E94BB34DD
:1037A0008AE096E00E940930512C612C712C03971D
:1037B000AA2797FDA095BA2FBF93AF939F938F939E
:1037C000A12CB12C6501A39414E6E12EF12C00E0AC
:1037D00010E021E030E040E050E0C301B2010E947F
:1037E0007F35C62EE0910A06F0910B06A684B784B9
:1037F0008AE096E00E940930D12C9C0123503109C7
:103800002C193D09B6016F5F7F4FE12CF12C03E0CD
:1038100010E041E250E08AE096E0F5010995E09180
:103820000A06F0910B060684F785E02DEE24E3945A
:10383000F12C960141E250E061E070E08AE096E010
:1038400009951F921F921F928EE08F93A12CB12C8D
:103850006501A39414E6E12EF12C00E010E021E0D4
:1038600030E040E050E0C301B2010E947F35E091BA
:103870000A06F0910B0666847784A62EB12C8AE0A6
:1038800096E00E940D302B81F3E02F9F6001112400
:1038900034E0C30ED11C0EE010E00A191B09AC0184
:1038A0004A515109E12CF12C23E030E0B6018AE0C5
:1038B00096E0F3010995E0910A06F0910B06668403
:1038C00077848AE096E00E940D30AC014C5051099B
:1038D0004A195B09EE24E394F12C850123E030E0E2
:1038E000B6018AE096E0F30109952B81E981FA811E
:1038F000228393820FB6F894DEBF0FBECDBF8AE05D
:1039000096E00F900F900F900F900F90DF91CF9156
:103910001F910F91FF90EF90DF90CF90BF90AF90ED
:103920009F908F907F906F905F904F903F902F90DF
:103930000C94112B2F923F924F925F926F927F9235
:103940008F929F92AF92BF92CF92DF92EF92FF92AF
:103950000F931F93CF93DF9300D0CDB7DEB79A8339
:103960008983142F722E602E4701FC018281281753
:1039700009F491C0821710F483E001C08FEF8093A7
:10398000250140E050E061E070E08AE096E00E94AE
:1039900000304CE050E064E270E08AE096E00E9483
:1039A000EE2F103218F084EF92E011C0183118F0A9
:1039B0008AEE92E00CC0103118F080EE92E007C061
:1039C000183018F086ED92E002C08CEC92E00E9474
:1039D0004516BC018AE096E00E94BB34812F8770B7
:1039E00034E0C32ED12C412C512CA82EB12CE091C7
:1039F0000A06F0910B06EE24E394F12C4A145B04C2
:103A000011F0E12CF12C0684F785E02D0BE010E09D
:103A10002EE030E045E150E0B6018AE096E00995FD
:103A200061E070E04A145B0411F460E070E08AE049
:103A300096E00E94FA2FB6016C5F7F4F47E150E09D
:103A40008AE096E00E94EE2F61E3640D8AE096E042
:103A50000E94BD34FFEF4F1A5F0A2FE0C20ED11C47
:103A600088E04816510419F64CE050E065E670E035
:103A70008AE096E00E94EE2F40E050E061E070E0C6
:103A80008AE096E00E9400304AE050E0B4018AE00B
:103A900096E00E9479358AE096E00E940930262C53
:103AA000312C412C512C0397AA2797FDA095BA2FB2
:103AB000BF93AF939F938F93A12CB12C6501A394D7
:103AC00014E6E12EF12C00E010E021E030E040E0CF
:103AD00050E0C201B1010E947F35A62EE0910A0696
:103AE000F0910B06C684D7848AE096E00E940930E4
:103AF000B12C9C01235031092A193B09B5016F5F94
:103B00007F4FE12CF12C03E010E041E250E08AE02D
:103B100096E0F6010995E0910A06F0910B060684FD
:103B2000F785E02DEE24E394F12C950141E250E07D
:103B300061E070E08AE096E009951F921F921F9263
:103B40008EE08F93A12CB12C6501A39414E6E12E95
:103B5000F12C00E010E021E030E040E050E0C20154
:103B6000B1010E947F35E0910A06F0910B06A68410
:103B7000B784C62ED12C8AE096E00E940D30F3E087
:103B80007F9E4001112424E0820E911C0EE010E083
:103B90000C191D09AC014A515109E12CF12C23E00B
:103BA00030E0B4018AE096E0F5010995E0910A065B
:103BB000F0910B06A684B7848AE096E00E940D304F
:103BC000AC014C5051094C195D09EE24E394F12CE1
:103BD000860123E030E0B4018AE096E0F501099522
:103BE000E981FA8172820FB6F894DEBF0FBECDBFB5
:103BF0008AE096E00F900F90DF91CF911F910F9187
:103C0000FF90EF90DF90CF90BF90AF909F908F90FC
:103C10007F906F905F904F903F902F900C94112B5E
:103C2000AF92BF92CF92DF92EF92FF920F931F93CA
:103C3000CF93DF931F92CDB7DEB78C0169830E94CB
:103C40009F16F80111826981643099F48FEB92E03C
:103C50000E944516BC01C8010E94B6164CE050E017
:103C600065E070E08AE096E00E94EE2F89EB92E03A
:103C700012C08EEA92E00E944516BC01C8010E9463
:103C8000B6164CE050E065E070E08AE096E00E94F5
:103C9000EE2F80EA92E00E944516BC018AE096E091
:103CA0000E94BB34E0910A06F0910B06C680D780D3
:103CB0008AE096E00E940930EE24E394F12C04E1BE
:103CC00010E09C0144E150E060E070E08AE096E0A2
:103CD000F6010995E0910A06F0910B06A680B780DF
:103CE0008AE096E00E940D308C018AE096E00E9406
:103CF00009306C018AE096E00E940D300B501109EA
:103D0000AC014B505109960160E070E08AE096E00A
:103D1000F50109958AE096E00E940D30AC0149500A
:103D2000510962E070E08AE096E00E94EE2F8BE994
:103D300092E00E944516BC018AE096E00E94BB34E6
:103D40008AE096E00E940D30AC014950510967E3CA
:103D500070E08AE096E00E94EE2F86E992E00E94F1
:103D60004516BC018AE096E00E94BB348AE096E0EA
:103D70000E940D308C018AE096E00E940930A80173
:103D800049505109BC01695171098AE096E00E94CD
:103D9000EE2F81E992E00E944516BC018AE096E090
:103DA0000E94BB348AE096E00F90DF91CF911F9183
:103DB0000F91FF90EF90DF90CF90BF90AF900C9459
:103DC000112B2F923F924F925F926F927F928F9220
:103DD0009F92AF92BF92CF92DF92EF92FF920F939A
:103DE0001F93CF93DF93CDB7DEB72A970FB6F89422
:103DF000DEBF0FBECDBF9A878987662E842E922E96
:103E0000702EFC82EB82DE82CD82B886AF82622F7A
:103E100070E080E090E01F921F921F922EE12F939E
:103E2000A12CB12C6501A39414E6E12EF12C00E045
:103E300010E021E030E040E050E00E947F35C62EE7
:103E40008AE096E00E940D301C010F900F900F90B9
:103E50000F90A985BA8512968C91881609F456C0E0
:103E6000D12CE0910A06F0910B06868597859A83FE
:103E700089838AE096E00E940D30A3E08A9E50017B
:103E800011242501B4E04B0E511C0EE110E00C1979
:103E90001D09AC014A525109E12CF12C23E030E01C
:103EA000B2018AE096E0E981FA810995E0910A067B
:103EB000F0910B06A1014C5051094C195D09068483
:103EC000F785E02DEE24E394F12C860123E030E029
:103ED000B2018AE096E00995E0910A06F0910B069E
:103EE000C684D7848AE096E00E940D30AC014A5225
:103EF0005109B501695F7F4FE12CF12C0EE110E013
:103F000021E030E08AE096E0F6010995611044C0B6
:103F1000F0E5F91508F092C0A985BA8511968C9143
:103F20001197891530F511969C9240E050E061E0C0
:103F300070E08AE096E00E9400304CE050E064E2DD
:103F400070E08AE096E00E94EE2F40E150E0672D9D
:103F50008AE096E00E9472354CE050E064E370E045
:103F60008AE096E00E94EE2F4AE050E06B817C816F
:103F700061C0C0902401D12CB9E0CB0ED11C8AE0E5
:103F800096E00E9409300C97C816D9060CF456C06A
:103F90008CE38093240152C04CE050E06EE170E06D
:103FA0008AE096E00E94EE2F40E050E061E070E091
:103FB0008AE096E00E9400308DE892E00E9445166B
:103FC000BC018AE096E00E94BB344CE050E06EE118
:103FD00070E08AE096E00E94EE2F4AE050E06D81AA
:103FE0007E818AE096E00E9479354CE050E065E5FC
:103FF00070E08AE096E00E94EE2F40E050E061E041
:1040000070E08AE096E00E9400304CE050E065E508
:1040100070E08AE096E00E94EE2F89E892E00E942C
:104020004516BC018AE096E00E94BB344AE050E0AD
:104030006F8178858AE096E00E9479358AE096E083
:104040000E94112BE985FA8582822A960FB6F89490
:10405000DEBF0FBECDBFDF91CF911F910F91FF90BB
:10406000EF90DF90CF90BF90AF909F908F907F9018
:104070006F905F904F903F902F900895EF92FF9236
:104080000F931F93CF93DF93F42EE9010E949F16A5
:1040900065E08AE096E00E94F42F61E070E08AE03B
:1040A00096E00E94FA2F4FE050E060E070E08AE076
:1040B00096E00E94EE2F40E150E06F2D8AE096E0FE
:1040C0000E94723561E08AE096E00E94F42F42E19E
:1040D00050E066E470E08AE096E00E94EE2FB801BE
:1040E0008AE096E00E94BB3462E08AE096E00E949B
:1040F000F42F4CE150E066E470E08AE096E00E9424
:10410000EE2F61E070E08AE096E00E94FA2F4AE02C
:1041100050E0BE018AE096E00E94793561E08AE0D5
:1041200096E00E94F42F41E050E060E070E08AE009
:1041300096E00E940030E0910A06F0910B0606849A
:10414000F785E02DEE24E394F12C09E010E027E060
:1041500030E040E050E060E070E08AE096E00995F1
:1041600041E050E061E070E08AE096E00E94EE2FCE
:1041700060E575E08AE096E00E94BB3441E050E0E3
:1041800060E070E08AE096E00E940030E0910A066C
:10419000F0910B06C685D7858AE096E00E940D3027
:1041A000AC014950510927E030E060E070E08AE05E
:1041B00096E0FE0109958AE096E00E940D30AC0180
:1041C0004850510961E070E08AE096E00E94EE2FCD
:1041D00062E575E08AE096E00E94BB348AE096E0F2
:1041E000DF91CF911F910F91FF90EF900C94112BC5
:1041F0006F927F928F929F92AF92BF92CF92DF92F7
:10420000EF92FF920F931F93CF93DF93CDB7DEB75B
:10421000762E642E822E902E602F70E080E090E04B
:104220001F921F921F9227E72F9343E0A42EB12CD9
:10423000C12CD12C14E6E12EF12C00E010E021E09D
:1042400030E040E050E00E947F35C62ED12CE09156
:104250000A06F0910B0627E730E02C193D09B6015C
:10426000695F7F4F0684F785E02DE12CF12C09E092
:1042700010E040E050E08AE096E009950F900F9042
:104280000F900F90E0910A06F0910B0682E00684F1
:10429000F785E02D7816A1F0E12CF12C09E010E073
:1042A00027E730E040E050E067E070E08AE096E029
:1042B0000995E0910A06F0910B060484F585E02D3E
:1042C000EE24E394F12C960140E050E067E070E0CA
:1042D0008AE096E00995882D90E0A0E0B0E01F927A
:1042E0001F921F9227E72F9323E0A22EB12CC12CFF
:1042F000D12C14E6E12EF12C00E010E021E030E0BA
:1043000040E050E0BC01CD010E947F35E0910A06FB
:10431000F0910B06A684B784C62ED12C8AE096E0D5
:104320000E940D3027E730E02C193D09AC014950BF
:104330005109B601695F7F4FE12CF12C09E010E0D3
:104340008AE096E0F50109950F900F900F900F907D
:10435000E0910A06F0910B0681E0A684B7847816F6
:10436000C9F08AE096E00E940D30AC014950510935
:10437000E12CF12C09E010E027E730E067E070E085
:104380008AE096E0F5010995E0910A06F0910B06A6
:10439000A484B5848AE096E00E940D30AC014950B7
:1043A0005109EE24E394F12C960167E070E08AE075
:1043B00096E0F5010995F3E1F61578F10E94ED32EA
:1043C00024EF31E040E050E00E94003821E030E08E
:1043D0006D3771058105910510F020E030E040E077
:1043E00050E0B9018AE096E00E9400308AE096E051
:1043F0000E940D30AC014D50510960E470E08AE03C
:1044000096E00E94EE2F8EE792E00E944516BC01D6
:104410008AE096E00E94BB341EC085E10E949F3373
:104420000597CCF0E0910A06F0910B06C684D7847C
:104430008AE096E00E940D30AC014D505109E12C0C
:10444000F12C04E010E02CE330E060E470E08AE05E
:1044500096E0F601099541E050E060E070E08AE006
:1044600096E00E94003048E350E064E170E08AE0AA
:1044700096E00E94EE2F4AE050E0682D8AE096E038
:104480000E94723541E050E064E170E08AE096E01D
:104490000E94EE2F4AE050E0692D8AE096E00E94EB
:1044A00072358AE096E0DF91CF911F910F91FF90D6
:1044B000EF90DF90CF90BF90AF909F908F907F90C4
:1044C0006F900C94112B7F928F929F92AF92BF921C
:1044D000CF92DF92EF92FF920F931F93CF93DF93D0
:1044E000EC016B015A01722E902E8E2C0E949F16A9
:1044F00081E792E00E944516BC01CE010E94B616EB
:1045000040E050E061E070E08AE096E00E94003018
:1045100061E070E08AE096E00E94FA2FE0910A06DE
:10452000F0910B06C681D7818AE096E00E9409309F
:10453000EE24E394F12C07E110E09C0147E150E008
:1045400060E070E08AE096E0FE010995E0910A06DD
:10455000F0910B06C681D7818AE096E00E9409306F
:1045600005E210E09C0145E250E060E070E08AE086
:1045700096E0FE010995E0910A06F0910B06C681CE
:10458000D7818AE096E00E94093003E310E09C01A5
:1045900043E350E060E070E08AE096E0FE010995B8
:1045A000E0910A06F0910B06C681D7818AE096E079
:1045B0000E940D308C0120E430E04BE050E060E4DC
:1045C00070E08AE096E0FE01099510E061E070E09D
:1045D0008AE096E00E94FA2F412F4370FEE04F9F41
:1045E000A0011124435F5F4F612F6695669580E4BB
:1045F000689FB00111246C5F7F4F8AE096E00E94B3
:10460000EE2FC12FD0E0F601EC0FFD1F40E150E08E
:1046100060818AE096E00E9472356EE475E08AE07F
:1046200096E00E94BB34FE01EE0FFF1FEA0DFB1D5A
:10463000608171814AE050E08AE096E00E9479351D
:10464000811008C0191106C064E575E08AE096E0A3
:104650000E94BB341F5F711608F0B8CF8AE096E065
:10466000DF91CF911F910F91FF90EF90DF90CF904E
:10467000BF90AF909F908F907F900C94112BDF9202
:10468000EF92FF920F931F93CF93DF93EC01D62EFF
:104690000E949F1681E692E00E944516BC01CE0161
:1046A0000E94B616E0910A06F0910B06C685D785E2
:1046B0008AE096E00E9409302AE0D29EA0011124EF
:1046C000445F5F4FEE24E394F12C0AE010E09C017C
:1046D00060E070E08AE096E0FE01099561E070E03C
:1046E000D11002C060E070E08AE096E00E94FA2FEC
:1046F0004DE050E065E070E08AE096E00E94EE2F29
:1047000084E592E00E944516BC018AE096E00E9492
:10471000BB3461E070E0F1E0DF1202C060E070E005
:104720008AE096E00E94FA2F47E150E065E070E0F1
:104730008AE096E00E94EE2F87E492E00E94451600
:10474000BC018AE096E00E94BB3461E070E022E0A8
:10475000D21202C060E070E08AE096E00E94FA2F78
:1047600041E250E065E070E08AE096E00E94EE2FC2
:1047700088E392E00E944516BC018AE096E00E9420
:10478000BB348AE096E0DF91CF911F910F91FF90AB
:10479000EF90DF900C94112B08957F928F929F924F
:1047A000AF92BF92CF92DF92EF92FF920F931F933F
:1047B000CF93DF93EC01D62EB22E48017E2C0E94BF
:1047C0009F168DE292E00E944516BC01CE010E9428
:1047D000B616E0910A06F0910B06C685D7858AE0E9
:1047E00096E00E9409302AE0D29EA0011124445F85
:1047F0005F4FEE24E394F12C0AE010E09C0160E0AE
:1048000070E08AE096E0FE01099561E070E0D11069
:1048100002C060E070E08AE096E00E94FA2F4DE06E
:1048200050E065E070E08AE096E00E94EE2F8EE1B5
:1048300092E00E944516BC018AE096E00E94BB34DB
:1048400061E070E0F1E0DF1202C060E070E08AE059
:1048500096E00E94FA2F47E150E065E070E08AE0C0
:1048600096E00E94EE2F86E192E00E944516BC0180
:104870008AE096E00E94BB34BB2019F08CE092E005
:1048800002C082E092E00E944516BC018AE096E0F8
:104890000E94BB3461E070E022E0D21202C060E00E
:1048A00070E08AE096E00E94FA2F41E250E065E075
:1048B00070E08AE096E00E94EE2F8AEF91E00E947D
:1048C0004516BC018AE096E00E94BB3477FC4EC0DE
:1048D000E0910A06F0910B06C685D7858AE096E03E
:1048E0000E9409309C012A523109E12CF12C08E088
:1048F00010E041E250E069E270E08AE096E0FE01FB
:104900000995A72CBB24A7FCB094E0910A06F0916E
:104910000B06272D86E02802B0011124625D7F4F2F
:104920000684F785E02DEE24E394F12C27E030E0B7
:1049300041E250E08AE096E00995E40100E010E0F1
:1049400061E070E00A151B0511F460E070E08AE098
:1049500096E00E94FA2F69918AE096E00E94BD34A9
:104960000F5F1F4F0A30110559F705C0B4018AE0E7
:1049700096E00E94BB3461E070E093E0D91202C07F
:1049800060E070E08AE096E00E94FA2F4BE250E08F
:1049900065E070E08AE096E00E94EE2FC11003C04F
:1049A0008FEE91E00BC0E1E0CE1203C081EE91E00A
:1049B00005C0F2E0CF1209C085ED91E00E944516D6
:1049C000BC018AE096E00E94BB3461E070E024E024
:1049D000D21202C060E070E08AE096E00E94FA2FF6
:1049E00045E350E065E070E08AE096E00E94EE2F3B
:1049F00089EC91E00E944516BC018AE096E00E9495
:104A0000BB348AE096E0DF91CF911F910F91FF9028
:104A1000EF90DF90CF90BF90AF909F908F907F905E
:104A20000C94112BBF92CF92DF92EF92FF920F93D3
:104A30001F93CF93DF93EC01B62EF42E69010E94F1
:104A40009F16E11003C08CEB91E002C08DEA91E06B
:104A50000E944516BC01CE010E94B61661E070E0CE
:104A60008AE096E00E94FA2F4CE050E065E070E0AA
:104A70008AE096E00E94EE2F88EA91E00E944516B7
:104A8000BC018AE096E00E94BB344CE050E066E254
:104A900070E08AE096E00E94EE2F61E36B0D8AE001
:104AA00096E00E94BD3444E150E065E070E08AE0A9
:104AB00096E00E94EE2F82EA91E00E944516BC012A
:104AC0008AE096E00E94BB3444E150E066E270E088
:104AD0008AE096E00E94EE2F8FE18F1518F48BE9A3
:104AE00091E014C087E18F1518F481E991E00EC0C0
:104AF0008FE08F1518F48FE891E008C087E08F15DC
:104B000018F48DE891E002C08BE891E00E94451610
:104B1000BC018AE096E00E94BB344CE150E065E0C5
:104B200070E08AE096E00E94EE2F85E891E00E9416
:104B30004516BC018AE096E00E94BB344CE150E08F
:104B400066E270E08AE096E00E94EE2F6F2D6770BB
:104B50006F5F4AE050E08AE096E00E94723544E2DE
:104B600050E065E070E08AE096E00E94EE2F87E773
:104B700091E00E944516BC018AE096E00E94BB3499
:104B800044E250E066E270E08AE096E00E94EE2F98
:104B90004AE050E0B6018AE096E00E9479354CE2A6
:104BA00050E065E070E08AE096E00E94EE2F81E739
:104BB00091E00E944516BC018AE096E00E94BB3459
:104BC0004CE250E066E270E08AE096E00E94EE2F50
:104BD000B8018AE096E00E94BB348AE096E00E9429
:104BE00009308254910997FD0196BC01759567952E
:104BF00044E350E08AE096E00E94EE2FE11003C00B
:104C000085E691E002C088E591E00E944516BC016E
:104C10008AE096E00E94BB348AE096E0DF91CF9173
:104C20001F910F91FF90EF90DF90CF90BF900C9469
:104C3000112B67E08AE096E00C9448290F931F93AC
:104C4000CF93DF93EC018D89823061F08330D9F00E
:104C5000813009F0C8C0EC81FD81E41BF50B319770
:104C6000DB0118C08C819D81DC01A61BB70BBD0147
:104C70008E819F81FC01E41BF50BAF01415051096E
:104C8000621B730BB0C0AE81BF81A61BB70BA21B0A
:104C9000B30BFA01F7FD05C18C819D81E817F90777
:104CA0000CF0FFC0B7FF04C02A0F3B1FA0E0B0E02C
:104CB0008E819F81AD01420F531F841795071CF40D
:104CC0009C012A1B3B0B121613060CF0EAC0422F64
:104CD0008A2F86958695869590E8899FE00DF11D2F
:104CE0001124EA5CFE4FA77069F158E05A1B852F2A
:104CF00090E0EC01C25DDE4F6881251760F4DC01B5
:104D0000A21BB1098FEF90E00A2E02C095958795FE
:104D10000A94E2F768230130110539F048F00230B7
:104D2000110551F48081862706C08081862B03C03F
:104D30006095808186238083451708F4B2C0451BA7
:104D4000E058FF4F4830A0F102301105A9F4DF010F
:104D5000842F9C9190959C93A058BF4F8850883089
:104D6000C0F788EF840F869586958695B0E88B9F6F
:104D7000E00DF11D112419C081E00130110509F089
:104D800080E0982F9195EF01842F9883C058DF4FD2
:104D900088508830D0F788EF840F86958695869561
:104DA00090E8899FE00DF11D1124E058FF4F4770F6
:104DB000442309F476C0A42FB0E0AA5DBE4F9C91B5
:104DC0000130110541F050F00230110509F069C0C1
:104DD0008081892706C08081892B03C090958081BE
:104DE000892380835EC057FD5CC08E819F814817F8
:104DF00059070CF056C077FF04C0260F371F60E03C
:104E000070E08C819D81FB01E20FF31F8E179F07DD
:104E10001CF49C01261B370B121613060CF041C024
:104E2000CA0157FD0796E3E095958795EA95E1F766
:104E30009695982F8827979587958A5C9E4F860F21
:104E4000971F4770552761E070E001C0660F4A95D3
:104E5000EAF7462F0130110541F088F002301105C4
:104E600001F5FC01280F391F15C0FC01280F391F5F
:104E7000E217F307B1F08081842B8193F9CF60951D
:104E8000FC01280F391FE217F30759F080818623B0
:104E90008193F9CFE217F30721F080818427819372
:104EA000F9CFDF91CF911F910F9108950F931F9329
:104EB000CF93DF93FC018589823069F08330E1F084
:104EC000813009F082C0C481D581C41BD50BC21BBF
:104ED000D30BDB0117C084819581DC01A61BB70BC6
:104EE000BD016150710986819781DC01A41BB50B5E
:104EF000AD01421B530B69C0A681B781A61BB70B3E
:104F00001197EA01B7FD08C186819781A817B907F3
:104F10000CF002C1D7FF04C02C0F3D1FC0E0D0E051
:104F200084819581AE01420F531F841795071CF4AD
:104F30009C012C1B3D0B121613060CF0EDC0CD018D
:104F4000B7FD079643E0959587954A95E1F79695C5
:104F5000982F8827979587958A5C9E4F8C0F9D1F69
:104F6000A770BB2741E050E00A2E01C0440F0A940D
:104F7000EAF7642F0130110549F098F0023011056D
:104F800009F0CAC0FC01280F391F17C0FC01280F07
:104F9000391FE217F30709F4BFC08081862B819384
:104FA000F8CF4095FC01280F391FE217F30709F4E9
:104FB000B3C0808184238193F8CFE217F30709F40B
:104FC000ABC0808186278193F8CF77FDA5C084810F
:104FD0009581681779070CF09FC057FF04C0240F14
:104FE000351F40E050E086819781FA01E20FF31F00
:104FF0008E179F071CF49C01241B350B12161306F9
:105000000CF08AC0522F842F869586958695FB01D9
:10501000B0E88B9FE00DF11D1124EA5CFE4F477054
:1050200069F168E0641B862F90E0EC01C25DDE4F01
:105030004881261760F4DC01A21BB1098FEF90E0D4
:105040000A2E02C0959587950A94E2F7482301300D
:10505000110539F048F00230110551F480818427A0
:1050600006C08081842B03C0409580818423808387
:10507000561708F451C0561BE058FF4F5830A0F1A6
:1050800002301105A9F4DF01852F9C9190959C9326
:10509000A058BF4F88508830C0F788EF850F86959D
:1050A00086958695B0E88B9FE00DF11D112419C0FF
:1050B00081E00130110509F080E0982F9195EF0112
:1050C000852F9883C058DF4F88508830D0F788EFFD
:1050D000850F86958695869590E8899FE00DF11D50
:1050E0001124E058FF4F57705523B1F0A52FB0E0C1
:1050F000AA5DBE4F9C910130110539F048F0023095
:10510000110551F48081892706C08081892B03C055
:105110009095808189238083DF91CF911F910F919A
:105120000895CF92DF92EF92FF920F931F93CF9348
:10513000DF937C018B01EA01690177FDA0C00E9429
:105140000930081719070CF09AC0D7FD98C0C7019D
:105150000E940D30C817D9070CF091C0C7010E94FA
:105160000630823009F07FC0F701848195819C016F
:10517000201B310B89010150110986819781FC01A7
:10518000EC1BFD0BEF0121970BC0813049F4F701B7
:10519000848195818C1B9D0BE8018C0101501109C4
:1051A000F1E0CF16D10431F010F132E0C316D10492
:1051B000E1F165C0FE01D7FD379683E0F595E795EF
:1051C0008A95E1F7F695FE2FEE27F795E795E00F24
:1051D000F11FEA5CFE4FC770DD2781E090E00C2EE6
:1051E00001C0880F0A94EAF79081982B3AC0FE011B
:1051F000D7FD3796A3E0F595E795AA95E1F7F695E3
:10520000FE2FEE27F795E795E00FF11FEA5CFE4FC2
:10521000C770DD2781E090E00C2E01C0880F0A9452
:10522000EAF78095908198231CC0FE01D7FD379640
:1052300063E0F595E7956A95E1F7F695FE2FEE2781
:10524000F795E795E00FF11FEA5CFE4FC770DD2789
:1052500081E090E00C2E01C0880F0A94EAF790815B
:10526000982790830CC0833009F08FCFF701868197
:105270009781801B910B8E01EC01219791CFDF91DB
:10528000CF911F910F91FF90EF90DF90CF900895F5
:105290001F93CF93DF93EC01162F40E450E060E8BA
:1052A00070E00E94552D8BE595E0998388838FEF00
:1052B0008C8F88A38E8F8D8F1F8FDF91CF911F9141
:1052C000089580E094E0E6E3F1E0DF019C011D92A7
:1052D00021503040E1F70895FC0181A1882339F085
:1052E0006EBD00000DB407FEFDCF8EB5089588E0B9
:1052F00090E030E8A4A1B5A14C9123A520952423EA
:105300002C93A2A1B3A122A5432F462321F04C91B7
:10531000422B4C9304C04C91209524232C93A4A1A0
:10532000B5A12C9143A5242B2C933695019711F709
:1053300008951F93CF93DF93EC01162F8C8D8F3F31
:1053400009F1EEA1FFA180819CA5892B8083E8A5AE
:10535000F9A590818DA5809589238083EEA1FFA179
:1053600090818CA5809589238083CE010E946C2931
:10537000EEA1FFA180819CA5892B8083DF91CF9135
:105380001F9108958A8D682F772767FD70958AE5AC
:1053900096E00E94BC3060E08AE596E00E946930A9
:1053A000612F8AE596E00E9469308AE596E0DF91F8
:1053B000CF911F910C94D1300F931F93CF93DF9314
:1053C000EC01162F022F6B8F4A8F8C8D8F3F09F4C3
:1053D0008CC061E08E8D0E94E53361E088A10E945F
:1053E000E53388A1992787FD9095FC01EF5AF64F88
:1053F000E491F0E0EE0FFF1FE159F64F2591349153
:105400003FA32EA3FC01E35CF64F84918CA78E8D05
:10541000992787FD9095FC01EF5AF64FE491F0E053
:10542000EE0FFF1FE159F64F2591349139A728A7B8
:10543000FC01E35CF64F84918DA789A1811134C0F2
:1054400061E08C8D0E94E53361E08D8D0E94E53333
:105450008D8D992787FD9095FC01EF5AF64FE491C9
:10546000F0E0EE0FFF1FE159F64F259134913DA377
:105470002CA3FC01E35CF64F84918BA78C8D9927BC
:1054800087FD9095FC01EF5AF64FE491F0E0EE0FA6
:10549000FF1FE159F64F259134913BA32AA3FC014C
:1054A000E35CF64F84918AA789A1882311F10E94B9
:1054B000982B80915806882399F09FB7F894809193
:1054C0005806813059F48DB3809356062DB38091E0
:1054D0005706809582238DBB9FBF02C090935606CE
:1054E00080E58CBD81E08DBD04C08AE596E00E9418
:1054F000A8300023F1F08F8D87FD1BC061E00E9472
:10550000E53361E08F8D0E941E3461E070E080E041
:1055100090E00E941C3360E08F8D0E941E346AE090
:1055200070E080E090E00E941C3361E08F8D0E946B
:105530001E346EEACE010E94992965EDCE010E94CB
:10554000992960E8CE010E94992968EACE010E945B
:1055500099296FE3CE010E94992963EDCE010E9443
:10556000992960E0CE010E94992960E4CE010E9451
:1055700099296DE8CE010E949929113011F460E15A
:1055800001C064E1CE010E94992960E2CE010E942F
:10559000992960E0CE010E94992961EACE010E941A
:1055A000992968ECCE010E9499296AEDCE010E94EA
:1055B000992962E1CE010E94992961E8CE010E94F9
:1055C0009929113011F46FE901C06FECCE010E94EE
:1055D000992969EDCE010E949929113011F462E2F6
:1055E00001C061EFCE010E9499296BEDCE010E94AE
:1055F000992960E4CE010E94992964EACE010E94B3
:10560000992966EACE010E9499296EE2CE010E9494
:1056100099296FEACE01DF91CF911F910F910C94E0
:105620009929DF92EF92FF920F931F93CF93DF930D
:10563000EC0161E20E94992960E0CE010E94992963
:105640006FE7CE010E94992962E2CE010E9499295A
:1056500060E0CE010E94992967E0CE010E9499295D
:105660008C8D8F3F31F1EEA1FFA180819CA5892B0C
:105670008083E8A5F9A580819DA5892B8083EEA173
:10568000FFA190818CA580958923808306E311E09A
:10569000F80161918F01CE010E946C29F5E006337B
:1056A0001F07B1F7EEA1FFA180819CA5892B808304
:1056B00037C0D090B8008CE08093B80006E311E0CA
:1056C0006A8D772767FD70958AE596E00E94BC3069
:1056D000E0915A06F0915B060190F081E02D60E4C4
:1056E0008AE596E00995E12CF12CF801EE0DFF1DFD
:1056F00060818AE596E00E9469308FEFE81AF80A27
:10570000E0E1EE16F10489F78AE596E00E94D130D7
:10571000005F1F4FF5E006331F0791F6D092B800E7
:10572000DF91CF911F910F91FF90EF90DF9008953F
:10573000CF93CFB7F89480915906811127C0EBE53C
:10574000F9E08491E7E4F9E09491E82FF0E0EE0FBE
:10575000FF1FE758F64FA591B4918C91892321F44E
:1057600061E08AE00E941E3461E08AE00E94E53335
:105770008CB580618CBD8CB580648CBD61E08DE0A2
:105780000E94E53361E08BE00E94E5338091590689
:105790008F5F80935906CFBFCF9108952F923F928C
:1057A0004F925F926F927F928F929F92AF92BF9231
:1057B000CF92DF92EF92FF920F931F93CF93DF93DD
:1057C00000D000D0CDB7DEB74C017C836B836A017B
:1057D0005901C8018701AC014C195D0957FF03C08D
:1057E00051954195510995016B817C81261B370BA1
:1057F00037FF03C031952195310922242394312CA0
:105800002417350714F0212C312C2114310459F0C0
:105810003A2D2B2D5C01832F922F3B812C81DC8232
:10582000CB82C32ED22EAB81BC81AA16BB065CF400
:105830003C2D2D2D6C01832F922F3B812C81BC821E
:10584000AB82A32EB22E2501EB81FC814E1A5F0A9A
:105850003C016C187D0877FE03C071946194710857
:10586000720157FE03C0FFEFEF1AFF0AF594E794A9
:10587000C816D9062CF421E030E03A83298324C0ED
:105880006FEF7FEF7A8369831FC0D401ED91FC91A4
:105890000480F581E02D980121143104D9F04B8169
:1058A0005C81B601C4010995E618F708F7FE06C049
:1058B000E981FA81CE0EDF1EE40CF51C2B813C81C0
:1058C0002F5F3F4F3C832B836B817C81A616B706ED
:1058D000E4F604C0A6016B817C81E4CF0F900F90A9
:1058E0000F900F90DF91CF911F910F91FF90EF904C
:1058F000DF90CF90BF90AF909F908F907F906F90F0
:105900005F904F903F902F9008956F927F928F926B
:105910009F92AF92BF92CF92DF92EF92FF920F933E
:105920001F93CF93DF93EC015B016A0139014801BA
:10593000E881F9810284F385E02D87010995E881EA
:10594000F981A601480D591D415051090284F38582
:10595000E02D9301B501CE010995E881F98100841C
:10596000F185E02D9401A601B501CE010995E881EC
:10597000F981B501660D771D615071090084F185CB
:10598000E02D9401A601CE010995DF91CF911F91E1
:105990000F91FF90EF90DF90CF90BF90AF909F90CE
:1059A0008F907F906F900895EF92FF920F931F93C7
:1059B000DC01ED91FC91240F351F21503109068047
:1059C000F781E02D780189019B0109951F910F91C5
:1059D000FF90EF900895EF92FF920F931F93DC01D9
:1059E000ED91FC91260F371F215031090680F78178
:1059F000E02D78018A0109951F910F91FF90EF909A
:105A000008956F927F928F929F92AF92BF92CF92A2
:105A1000DF92EF92FF920F931F93CF93DF935C017E
:105A20004A0169013801EB01C60ED71ECC15DD0510
:105A300074F4D501ED91FC910084F185E02D87018E
:105A40009301A401BE01C50109952196EFCFDF9115
:105A5000CF911F910F91FF90EF90DF90CF90BF906B
:105A6000AF909F908F907F906F900895EF92FF92EC
:105A70000F931F93DC01ED91FC9111971A960D91F4
:105A80001C911B9718962D913C9119970684F785C8
:105A9000E02D7B0140E050E060E070E009951F914F
:105AA0000F91FF90EF9008950895FC0113821282E8
:105AB00083E795E09183808375836483578346836E
:105AC0007187608753874287158A158614861786E3
:105AD000168621E0248B8FEF9FEF938B828B918B27
